{
  "_format": "hh-sol-artifact-1",
  "contractName": "Lottery",
  "sourceName": "contracts/Lottery.sol",
  "abi": [
    {
      "anonymous": false,
      "inputs": [
        {
          "indexed": false,
          "internalType": "address",
          "name": "from",
          "type": "address"
        },
        {
          "indexed": false,
          "internalType": "address payable",
          "name": "reciever",
          "type": "address"
        },
        {
          "indexed": false,
          "internalType": "uint256",
          "name": "amount",
          "type": "uint256"
        },
        {
          "indexed": false,
          "internalType": "uint256",
          "name": "timestamp",
          "type": "uint256"
        }
      ],
      "name": "Transfer",
      "type": "event"
    },
    {
      "inputs": [
        {
          "internalType": "address payable",
          "name": "reciever",
          "type": "address"
        },
        {
          "internalType": "uint256",
          "name": "amount",
          "type": "uint256"
        }
      ],
      "name": "fundToLottery",
      "outputs": [],
      "stateMutability": "payable",
      "type": "function"
    },
    {
      "inputs": [],
      "name": "getListOfPlayers",
      "outputs": [
        {
          "internalType": "address[]",
          "name": "",
          "type": "address[]"
        }
      ],
      "stateMutability": "view",
      "type": "function"
    },
    {
      "inputs": [],
      "name": "pickTheLotteryWinner",
      "outputs": [
        {
          "internalType": "address",
          "name": "winner",
          "type": "address"
        }
      ],
      "stateMutability": "nonpayable",
      "type": "function"
    }
  ],
  "bytecode": "0x608060405234801561001057600080fd5b50610953806100206000396000f3fe6080604052600436106100345760003560e01c806314726d881461003957806388d190eb14610064578063a29e0d1114610080575b600080fd5b34801561004557600080fd5b5061004e6100ab565b60405161005b91906105e8565b60405180910390f35b61007e60048036038101906100799190610683565b610139565b005b34801561008c57600080fd5b506100956102f9565b6040516100a291906106d2565b60405180910390f35b6060600180548060200260200160405190810160405280929190818152602001828054801561012f57602002820191906000526020600020905b8160009054906101000a900473ffffffffffffffffffffffffffffffffffffffff1673ffffffffffffffffffffffffffffffffffffffff16815260200190600101908083116100e5575b5050505050905090565b6001339080600181540180825580915050600190039060005260206000200160009091909190916101000a81548173ffffffffffffffffffffffffffffffffffffffff021916908373ffffffffffffffffffffffffffffffffffffffff160217905550600260405180608001604052803373ffffffffffffffffffffffffffffffffffffffff1681526020018473ffffffffffffffffffffffffffffffffffffffff16815260200183815260200142815250908060018154018082558091505060019003906000526020600020906004020160009091909190915060008201518160000160006101000a81548173ffffffffffffffffffffffffffffffffffffffff021916908373ffffffffffffffffffffffffffffffffffffffff16021790555060208201518160010160006101000a81548173ffffffffffffffffffffffffffffffffffffffff021916908373ffffffffffffffffffffffffffffffffffffffff160217905550604082015181600201556060820151816003015550507f9ed053bb818ff08b8353cd46f78db1f0799f31c9e4458fdb425c10eccd2efc44338383426040516102ed949392919061070b565b60405180910390a15050565b600080600090505b6001805490508110156104b257600081600180549050610321919061077f565b4260405160200161033291906107d4565b6040516020818303038152906040528051906020012060001c610355919061081e565b82610360919061084f565b9050600060018281548110610378576103776108a5565b5b9060005260206000200160009054906101000a900473ffffffffffffffffffffffffffffffffffffffff169050600183815481106103b9576103b86108a5565b5b9060005260206000200160009054906101000a900473ffffffffffffffffffffffffffffffffffffffff16600183815481106103f8576103f76108a5565b5b9060005260206000200160006101000a81548173ffffffffffffffffffffffffffffffffffffffff021916908373ffffffffffffffffffffffffffffffffffffffff1602179055508060018481548110610455576104546108a5565b5b9060005260206000200160006101000a81548173ffffffffffffffffffffffffffffffffffffffff021916908373ffffffffffffffffffffffffffffffffffffffff160217905550505080806104aa906108d4565b915050610301565b5060016000815481106104c8576104c76108a5565b5b9060005260206000200160009054906101000a900473ffffffffffffffffffffffffffffffffffffffff16905090565b600081519050919050565b600082825260208201905092915050565b6000819050602082019050919050565b600073ffffffffffffffffffffffffffffffffffffffff82169050919050565b600061054f82610524565b9050919050565b61055f81610544565b82525050565b60006105718383610556565b60208301905092915050565b6000602082019050919050565b6000610595826104f8565b61059f8185610503565b93506105aa83610514565b8060005b838110156105db5781516105c28882610565565b97506105cd8361057d565b9250506001810190506105ae565b5085935050505092915050565b60006020820190508181036000830152610602818461058a565b905092915050565b600080fd5b600061061a82610524565b9050919050565b61062a8161060f565b811461063557600080fd5b50565b60008135905061064781610621565b92915050565b6000819050919050565b6106608161064d565b811461066b57600080fd5b50565b60008135905061067d81610657565b92915050565b6000806040838503121561069a5761069961060a565b5b60006106a885828601610638565b92505060206106b98582860161066e565b9150509250929050565b6106cc81610544565b82525050565b60006020820190506106e760008301846106c3565b92915050565b6106f68161060f565b82525050565b6107058161064d565b82525050565b600060808201905061072060008301876106c3565b61072d60208301866106ed565b61073a60408301856106fc565b61074760608301846106fc565b95945050505050565b7f4e487b7100000000000000000000000000000000000000000000000000000000600052601160045260246000fd5b600061078a8261064d565b91506107958361064d565b9250828210156107a8576107a7610750565b5b828203905092915050565b6000819050919050565b6107ce6107c98261064d565b6107b3565b82525050565b60006107e082846107bd565b60208201915081905092915050565b7f4e487b7100000000000000000000000000000000000000000000000000000000600052601260045260246000fd5b60006108298261064d565b91506108348361064d565b925082610844576108436107ef565b5b828206905092915050565b600061085a8261064d565b91506108658361064d565b9250827fffffffffffffffffffffffffffffffffffffffffffffffffffffffffffffffff0382111561089a57610899610750565b5b828201905092915050565b7f4e487b7100000000000000000000000000000000000000000000000000000000600052603260045260246000fd5b60006108df8261064d565b91507fffffffffffffffffffffffffffffffffffffffffffffffffffffffffffffffff82141561091257610911610750565b5b60018201905091905056fea26469706673582212201eb0425b6d4012b6bc95d818afd89e8d1d54d2d8b096513336ff32f0f4c9095964736f6c63430008090033",
  "linkReferences": {},
  "deployedLinkReferences": {}
}