{
  "_format": "hh-sol-artifact-1",
  "contractName": "Lottery",
  "sourceName": "contracts/Lottery.sol",
  "abi": [
    {
      "anonymous": false,
      "inputs": [
        {
          "indexed": false,
          "internalType": "address",
          "name": "from",
          "type": "address"
        },
        {
          "indexed": false,
          "internalType": "address payable",
          "name": "reciever",
          "type": "address"
        },
        {
          "indexed": false,
          "internalType": "uint256",
          "name": "amount",
          "type": "uint256"
        },
        {
          "indexed": false,
          "internalType": "uint256",
          "name": "timestamp",
          "type": "uint256"
        }
      ],
      "name": "Transfer",
      "type": "event"
    },
    {
      "inputs": [],
      "name": "fundMinimumAmount",
      "outputs": [
        {
          "internalType": "uint256",
          "name": "",
          "type": "uint256"
        }
      ],
      "stateMutability": "view",
      "type": "function"
    },
    {
      "inputs": [
        {
          "internalType": "address payable",
          "name": "reciever",
          "type": "address"
        },
        {
          "internalType": "uint256",
          "name": "amount",
          "type": "uint256"
        }
      ],
      "name": "fundToLottery",
      "outputs": [],
      "stateMutability": "payable",
      "type": "function"
    },
    {
      "inputs": [],
      "name": "getListOfPlayers",
      "outputs": [
        {
          "internalType": "address[]",
          "name": "",
          "type": "address[]"
        }
      ],
      "stateMutability": "view",
      "type": "function"
    },
    {
      "inputs": [],
      "name": "pickTheLotteryWinner",
      "outputs": [
        {
          "internalType": "address",
          "name": "winner",
          "type": "address"
        }
      ],
      "stateMutability": "view",
      "type": "function"
    }
  ],
  "bytecode": "0x608060405234801561001057600080fd5b506108c9806100206000396000f3fe60806040526004361061003f5760003560e01c806314726d881461004457806388d190eb1461006f5780639b1064031461008b578063a29e0d11146100b6575b600080fd5b34801561005057600080fd5b506100596100e1565b60405161006691906104ec565b60405180910390f35b61008960048036038101906100849190610587565b61016f565b005b34801561009757600080fd5b506100a0610378565b6040516100ad91906105d6565b60405180910390f35b3480156100c257600080fd5b506100cb610383565b6040516100d89190610600565b60405180910390f35b6060600180548060200260200160405190810160405280929190818152602001828054801561016557602002820191906000526020600020905b8160009054906101000a900473ffffffffffffffffffffffffffffffffffffffff1673ffffffffffffffffffffffffffffffffffffffff168152602001906001019080831161011b575b5050505050905090565b66b1a2bc2ec5000034146101b8576040517f08c379a00000000000000000000000000000000000000000000000000000000081526004016101af90610678565b60405180910390fd5b6001339080600181540180825580915050600190039060005260206000200160009091909190916101000a81548173ffffffffffffffffffffffffffffffffffffffff021916908373ffffffffffffffffffffffffffffffffffffffff160217905550600260405180608001604052803373ffffffffffffffffffffffffffffffffffffffff1681526020018473ffffffffffffffffffffffffffffffffffffffff16815260200183815260200142815250908060018154018082558091505060019003906000526020600020906004020160009091909190915060008201518160000160006101000a81548173ffffffffffffffffffffffffffffffffffffffff021916908373ffffffffffffffffffffffffffffffffffffffff16021790555060208201518160010160006101000a81548173ffffffffffffffffffffffffffffffffffffffff021916908373ffffffffffffffffffffffffffffffffffffffff160217905550604082015181600201556060820151816003015550507f9ed053bb818ff08b8353cd46f78db1f0799f31c9e4458fdb425c10eccd2efc443383834260405161036c94939291906106a7565b60405180910390a15050565b66b1a2bc2ec5000081565b6000804244600160405160200161039c9392919061082b565b6040516020818303038152906040528051906020012060001c9050600181815481106103cb576103ca610864565b5b9060005260206000200160009054906101000a900473ffffffffffffffffffffffffffffffffffffffff1691505090565b600081519050919050565b600082825260208201905092915050565b6000819050602082019050919050565b600073ffffffffffffffffffffffffffffffffffffffff82169050919050565b600061045382610428565b9050919050565b61046381610448565b82525050565b6000610475838361045a565b60208301905092915050565b6000602082019050919050565b6000610499826103fc565b6104a38185610407565b93506104ae83610418565b8060005b838110156104df5781516104c68882610469565b97506104d183610481565b9250506001810190506104b2565b5085935050505092915050565b60006020820190508181036000830152610506818461048e565b905092915050565b600080fd5b600061051e82610428565b9050919050565b61052e81610513565b811461053957600080fd5b50565b60008135905061054b81610525565b92915050565b6000819050919050565b61056481610551565b811461056f57600080fd5b50565b6000813590506105818161055b565b92915050565b6000806040838503121561059e5761059d61050e565b5b60006105ac8582860161053c565b92505060206105bd85828601610572565b9150509250929050565b6105d081610551565b82525050565b60006020820190506105eb60008301846105c7565b92915050565b6105fa81610448565b82525050565b600060208201905061061560008301846105f1565b92915050565b600082825260208201905092915050565b7f46756e64656420616d6f756e74206973206e6f7420636f727265637421000000600082015250565b6000610662601d8361061b565b915061066d8261062c565b602082019050919050565b6000602082019050818103600083015261069181610655565b9050919050565b6106a181610513565b82525050565b60006080820190506106bc60008301876105f1565b6106c96020830186610698565b6106d660408301856105c7565b6106e360608301846105c7565b95945050505050565b6000819050919050565b61070761070282610551565b6106ec565b82525050565b600081549050919050565b600081905092915050565b60008190508160005260206000209050919050565b61074181610448565b82525050565b60006107538383610738565b60208301905092915050565b60008160001c9050919050565b600073ffffffffffffffffffffffffffffffffffffffff82169050919050565b600061079f61079a8361075f565b61076c565b9050919050565b60006107b2825461078c565b9050919050565b6000600182019050919050565b60006107d18261070d565b6107db8185610718565b93506107e683610723565b8060005b8381101561081e576107fb826107a6565b6108058882610747565b9750610810836107b9565b9250506001810190506107ea565b5085935050505092915050565b600061083782866106f6565b60208201915061084782856106f6565b60208201915061085782846107c6565b9150819050949350505050565b7f4e487b7100000000000000000000000000000000000000000000000000000000600052603260045260246000fdfea2646970667358221220a06a928b767bd97d34583792fdd22d7f9cf19a37614d5dab71675e633fa6e5b864736f6c63430008090033",
  "linkReferences": {},
  "deployedLinkReferences": {}
}